:020000040800F2
:100000000028002001180008A3020008A50200082B
:10001000A7020008A9020008AB02000800000000C7
:10002000000000000000000000000000AD02000819
:10003000AF02000800000000B1020008B30200088F
:10004000491800084918000849180008491800080C
:1000500049180008491800084918000849180008FC
:1000600049180008491800084918000849180008EC
:1000700049180008491800084918000849180008DC
:1000800049180008491800084918000849180008CC
:1000900049180008491800084918000849180008BC
:1000A00049180008491800084918000849180008AC
:1000B000BD020008491800080000000049180008A7
:1000C000491800080000000000000000491800085E
:1000D00000000000CD0200084918000800000000E0
:1000E00049180008491800084918000800000000D5
:1000F0000000000000000000000000000000000000
:0C01000000000000000000005FF808F1A3
:10010C0010B5054C237833B9044B13B10448AFF345
:10011C0000800123237010BD0C00002000000000A3
:10012C00A418000808B5034B1BB103490348AFF3EF
:10013C00008008BD0000000010000020A41800087A
:10014C0030B587B0002402940394049405940E4BAC
:10015C009A6942F004029A619B6903F004030193CB
:10016C00019B0A4D2246F821284600F0B7FFF823E0
:10017C0002930123039304940223059302A92846B6
:10018C0000F09CFE07B030BD00100240000801409A
:10019C0072B6FEE700B587B0002302930393049375
:1001AC0005930093019313484FF0804202604F2255
:1001BC00426083600922C2600361836100F024FA0B
:1001CC0090B94FF48053029302A90A4800F054FAF4
:1001DC0060B90023009301936946064800F0CCFAFD
:1001EC0030B907B05DF804FBFFF7D2FFFFF7D0FF83
:1001FC00FFF7CEFF2800002008B50A480A4B036021
:10020C004FF4E133436000238360C36003610C222D
:10021C0042618361C36101F0EDF800B908BDFFF7DD
:10022C00B7FF00BF700000200038014000B591B04E
:10023C002822002106A801F027FB0023019302933A
:10024C000393049305930223069301230A9310232B
:10025C000B9306A800F024FB68B90F23019300212F
:10026C00029103910491059101A800F04BFD20B976
:10027C0011B05DF804FBFFF78BFFFFF789FF08B5A2
:10028C0000F0D4FAFFF7D2FFFFF75AFFFFF782FF17
:10029C00FFF7B2FFFEE7FEE7FEE7FEE7FEE7FEE74D
:1002AC0070477047704708B500F0D2FA08BD0000DF
:1002BC0008B5024800F0B8F808BD00BF28000020BF
:1002CC0008B5024801F052F908BD00BF70000020CB
:1002DC0082B00A4B9A6942F001029A619A6902F063
:1002EC0001020092009ADA6942F08052DA61DB690D
:1002FC0003F080530193019B02B070470010024041
:10030C000368B3F1804F00D0704700B583B003F59C
:10031C000433DA6942F00102DA61DB6903F00103AC
:10032C000193019B002211461C2000F05FFF1C2052
:10033C0000F094FF03B05DF804FB000030B587B00B
:10034C000023029303930493059302681B4B9A4278
:10035C0001D007B030BD03F558439A6942F480428E
:10036C009A619A6902F480420092009A9A6942F06A
:10037C0004029A619B6903F004030193019B4FF4FF
:10038C000073029302230393032305930C4D02A9DC
:10039C00284600F093FD4FF48063029300240394ED
:1003AC00049402A9284600F089FD22462146252006
:1003BC0000F01CFF252000F051FFCAE70038014077
:1003CC000008014010B4036A046A24F001040462BA
:1003DC00846924F0F00C4CEA021223F00A030B435C
:1003EC008261036210BC704710B4036A046A24F083
:1003FC0010040462846924F4704C4CEA023223F039
:10040C00A00343EA01138261036210BC7047836846
:10041C0023F070030B4343F007038360704770476E
:10042C00704770477047704710B5044603681A69E7
:10043C0012F0020F11D0DA6812F0020F0DD06FF02B
:10044C0002021A610123037703689B6913F0030FFF
:10045C0070D0FFF7E6FF0023237723681A6912F0A8
:10046C00040F12D0DA6812F0040F0ED06FF00402F1
:10047C001A610223237723689B6913F4407F5FD0B2
:10048C002046FFF7CEFF0023237723681A6912F06A
:10049C00080F12D0DA6812F0080F0ED06FF00802B5
:1004AC001A61042323772368DB6913F0030F4ED002
:1004BC002046FFF7B6FF0023237723681A6912F052
:1004CC00100F12D0DA6812F0100F0ED06FF010026D
:1004DC001A61082323772368DB6913F4407F3DD02E
:1004EC002046FFF79EFF0023237723681A6912F03A
:1004FC00010F03D0DA6812F0010F36D123681A69A4
:10050C0012F0800F03D0DA6812F0800F34D1236818
:10051C001A6912F0400F03D0DA6812F0400F32D192
:10052C0023681A6912F0200F03D0DA6812F0200F3A
:10053C0030D110BDFFF774FF2046FFF773FF8AE739
:10054C002046FFF76DFF2046FFF76CFF9BE7204628
:10055C00FFF766FF2046FFF765FFACE72046FFF785
:10056C005FFF2046FFF75EFFBDE76FF001021A61E7
:10057C002046FFF754FFC1E76FF080021A61204656
:10058C0000F02DF9C3E76FF040021A612046FFF727
:10059C004AFFC5E76FF020021A61204600F01EF9F1
:1005AC00C7E700000368174A904206D0B0F1804FAD
:1005BC0003D0A2F59432904203D123F070034A6821
:1005CC001343104A904206D0B0F1804F03D0A2F5ED
:1005DC009432904203D123F44073CA68134323F03E
:1005EC0080034A69134303608B68C3620B688362A0
:1005FC00044B984202D00123436170470B6903639B
:10060C00F9E700BF002C014040B310B5044690F848
:10061C003D30F3B1022384F83D30214651F8040BF0
:10062C00FFF7C0FF012384F8463084F83E3084F88D
:10063C003F3084F8403084F8413084F8423084F8FC
:10064C00433084F8443084F8453084F83D30002041
:10065C0010BD80F83C30FFF753FEDBE701207047FC
:10066C0010B4846824F47F4C42EA03220A4342EA21
:10067C000C02826010BC704790F83C30012B78D093
:10068C0010B50446012380F83C30022380F83D303D
:10069C000268936823F47F4323F0770393600B681D
:1006AC00602B4CD029D8402B54D00CD9502B22D1B4
:1006BC00CA6849680068FFF785FE50212068FFF77B
:1006CC00A6FE002005E0202B0DD009D9302B0AD036
:1006DC000120012384F83D30002384F83C3010BD08
:1006EC000BB1102B05D119462068FFF790FE0020A6
:1006FC00EFE70120EDE70120EBE7B3F5805F34D0A5
:10070C00B3F5005F0CD1CB684A6889680068FFF7C5
:10071C00A7FF2268936843F4804393600020D8E7D6
:10072C00702B24D1CB684A6889680068FFF798FF62
:10073C002268936843F0770393600020C9E7CA6886
:10074C0049680068FFF750FE60212068FFF75FFEE4
:10075C000020BEE7CA6849680068FFF733FE4021F5
:10076C002068FFF754FE0020B3E70020B1E701201A
:10077C00AFE702207047000090F83C30012B28D0E6
:10078C0010B4012380F83C30022380F83D3003681C
:10079C005A689C6822F0700C0A6842EA0C025A6093
:1007AC0003680D4A934206D0B3F1804F03D0A2F5F3
:1007BC009432934204D124F080044A6814439C6020
:1007CC00012380F83D30002380F83C30184610BCE3
:1007DC0070470220704700BF002C014070477047E3
:1007EC0010B504460E4B18784FF47A73B3FBF0F344
:1007FC000C4A1068B0FBF3F000F03EFD68B90F2C0A
:10080C0001D901200AE0002221464FF0FF3000F010
:10081C00EDFC054B1C60002000E0012010BD00BF6A
:10082C0000000020080000200400002008B5074A42
:10083C00136843F010031360032000F0C5FC0F2075
:10084C00FFF7CEFFFFF744FD002008BD002002405B
:10085C00034A1168034B1B780B441360704700BFAD
:10086C00B800002000000020014B1868704700BF42
:10087C00B800002082B0084B1B68084AA2FB032377
:10088C005B0A00FB03F3019300BF019B5A1E01920C
:10089C00002BF9D102B0704708000020D34D621034
:1008AC00002800F0F18170B582B00446036813F0A3
:1008BC00010F2CD0994B5B6803F00C03042B1DD05B
:1008CC00964B5B6803F00C03082B12D06368B3F5EE
:1008DC00803F41D0002B55D103F1804303F5043305
:1008EC001A6822F480321A601A6822F480221A6084
:1008FC0037E08A4B5B6813F4803FE7D0874B1B686B
:10090C0013F4003F03D06368002B00F0BF81236811
:10091C0013F0020F75D0814B5B6813F00C0F5FD096
:10092C007E4B5B6803F00C03082B54D02369002B1F
:10093C0000F08A807A4B01221A60FFF795FF05467A
:10094C00764B1B6813F0020F75D1FFF78DFF401B20
:10095C000228F5D903209EE1704A136843F48033D2
:10096C001360636843B3FFF77FFF05466B4B1B684F
:10097C0013F4003FCBD1FFF777FF401B6428F5D968
:10098C00032088E1B3F5A02F09D0644B1A6822F438
:10099C0080321A601A6822F480221A60E1E703F1AF
:1009AC008043A3F53C331A6842F480221A601A681B
:1009BC0042F480321A60D4E7FFF756FF0546574BD6
:1009CC001B6813F4003FA2D0FFF74EFF401B6428B6
:1009DC00F5D903205FE1514B5B6813F4803FA5D13F
:1009EC004E4B1B6813F0020F03D02369012B40F010
:1009FC004F814A4A136823F0F803616943EAC10343
:100A0C001360236813F0080F33D0A369002B5CD05C
:100A1C00434B0122C3F88024FFF726FF05463F4BCA
:100A2C005B6A13F0020F21D1FFF71EFF401B022857
:100A3C00F5D903202FE1394A136823F0F8036169D3
:100A4C0043EAC1031360DCE7354B00221A60FFF761
:100A5C000BFF0546314B1B6813F0020FD1D0FFF78B
:100A6C0003FF401B0228F5D9032014E10120FFF7F6
:100A7C0001FF236813F0040F00F09680274BDB690D
:100A8C0013F0805F34D1254BDA6942F08052DA6181
:100A9C00DB6903F080530193019B0125214B1B68FB
:100AAC0013F4807F26D0E368012B3DD0002B53D16B
:100ABC0003F1804303F504331A6A22F001021A622F
:100ACC001A6A22F004021A6233E0154B0022C3F8B2
:100ADC008024FFF7C9FE0546104B5B6A13F0020F2A
:100AEC00C7D0FFF7C1FE401B0228F5D90320D2E086
:100AFC000025D3E70B4A136843F480731360FFF7A8
:100B0C00B3FE0646074B1B6813F4807FCBD1FFF76F
:100B1C00ABFE801B6428F5D90320BCE0001002401A
:100B2C0000004242007000405F4A136A43F0010328
:100B3C001362E36833B3FFF797FE06465A4B1B6A02
:100B4C0013F0020F2FD1FFF78FFE801B41F2883379
:100B5C009842F3D903209EE0052B09D0524B1A6A18
:100B6C0022F001021A621A6A22F004021A62E0E709
:100B7C004D4B1A6A42F004021A621A6A42F00102E0
:100B8C001A62D6E7FFF770FE0646474B1B6A13F056
:100B9C00020F08D0FFF768FE801B41F288339842A1
:100BAC00F3D9032077E0E5B9E369002B72D03E4A14
:100BBC00526802F00C02082A56D0022B17D03B4B7D
:100BCC0000221A66FFF750FE0446374B1B6813F0E1
:100BDC00007F47D0FFF748FE001B0228F5D9032001
:100BEC0059E0314AD36923F08053D361DCE72F4BB2
:100BFC0000221A66FFF738FE05462B4B1B6813F0D4
:100C0C00007F06D0FFF730FE401B0228F5D90320E9
:100C1C0041E0236AB3F5803F1AD023494B6823F493
:100C2C007413226A606A024313434B601F4B012208
:100C3C001A66FFF719FE04461B4B1B6813F0007F66
:100C4C000ED1FFF711FE001B0228F5D9032022E07C
:100C5C00154A536823F40033A1680B435360DCE757
:100C6C00002018E0002016E0012B16D00E4B5B681C
:100C7C0003F48031226A914211D103F47013626A39
:100C8C0093420ED1002006E001207047012002E0C3
:100C9C00012000E0002002B070BD0120FBE7012024
:100CAC00F9E70120F7E700BF0010024000004242C4
:100CBC000F4B5B6803F00C02082A01D00D487047FB
:100CCC00C3F383420C49885C13F4803F0BD0084B70
:100CDC005B68C3F34043094AD35C064A02FB00F04D
:100CEC00B0FBF3F07047064B03FB00F0704700BFFE
:100CFC000010024000127A00BC180008CC18000842
:100D0C0000093D00002800F0A08070B50D46044697
:100D1C00524B1B6803F007038B420BD24F4A1368EC
:100D2C0023F007030B431360136803F007038B4294
:100D3C0040F08D80236813F0020F17D013F0040FCE
:100D4C0004D0474A536843F4E0635360236813F0BC
:100D5C00080F04D0424A536843F460535360404A2E
:100D6C00536823F0F003A1680B435360236813F01E
:100D7C00010F31D06368012B20D0022B25D0384ACB
:100D8C00126812F0020F64D035494A6822F003024F
:100D9C0013434B60FFF768FD0646314B5B6803F06D
:100DAC000C036268B3EB820F16D0FFF75DFD801B5E
:100DBC0041F288339842F0D9032045E0284A126862
:100DCC0012F4003FE0D101203EE0254A126812F0F7
:100DDC00007FD9D1012037E0204B1B6803F00703BB
:100DEC00AB420AD91D4A136823F007032B43136047
:100DFC00136803F00703AB422DD1236813F0040FE3
:100E0C0006D0174A536823F4E063E1680B43536040
:100E1C00236813F0080F07D0114A536823F460536A
:100E2C00216943EAC1035360FFF742FF0C4B5B6837
:100E3C00C3F303130B4AD35CD8400B4B18600B4B1A
:100E4C001868FFF7CDFC002070BD01207047012011
:100E5C00FAE70120F8E70120F6E700BF0020024086
:100E6C0000100240D01800080800002004000020E8
:100E7C00014B1868704700BF0800002008B5FFF749
:100E8C00F7FF044B5B68C3F30223034AD35CD840DF
:100E9C0008BD00BF00100240E018000808B5FFF7BD
:100EAC00E7FF044B5B68C3F3C223034AD35CD8400F
:100EBC0008BD00BF00100240E018000870B582B0F9
:100ECC000024A4468BE07F4DAA4210D007D97E4D5A
:100EDC00AA420CD005F58035AA4208D015E0A5F53C
:100EEC008015AA4203D005F57025AA4209D18A685B
:100EFC00002A00F0BF80012A00F0B780436108246B
:100F0C0003E0A5F58015AA42F1D0BEF1FF0F00F267
:100F1C00B3800646BEF1FF0F00F2B0804FEA8C02A0
:100F2C0033680F25954023EA050304FA02F21343B4
:100F3C0033604B6813F0805F4FD0644B9A6942F07A
:100F4C0001029A619B6903F001030193019B4FEA33
:100F5C009C02951C5E4B53F825600CF003039D001E
:100F6C000F23AB4026EA03065A4B984200F08C80C4
:100F7C0003F58063984200F0898003F58063984202
:100F8C0000F080800323AB4033430232504D45F8D0
:100F9C0022304B6813F4801F7AD04F4A936843EA8F
:100FAC000E0393604B6813F4001F77D04A4AD36842
:100FBC0043EA0E03D3604B6813F4003F74D0464AE7
:100FCC00536843EA0E0353604B6813F4803F71D0AF
:100FDC00414A136843EA0E0313600CF1010C0A68D2
:100FEC0032FA0CF36CD0012303FA0CF302EA030E71
:100FFC0033EA0202F1D14A68122A3FF664AF122A90
:10100C0083D801A555F822F0FB0E000861100008EA
:10101C006B1000087D100008170F0008170F000850
:10102C00170F0008170F0008170F0008170F0008FC
:10103C00170F0008170F0008170F0008170F0008EC
:10104C00170F0008170F0008170F0008651000088D
:10105C0071100008CC6858E7CC68043455E7CC68AC
:10106C00083452E7CC680C344FE7036108244CE792
:10107C0000244AE7042448E7061D4BE7ACF10802BC
:10108C0092004DE702237EE700237CE701237AE7F9
:10109C00114A936823EA0E03936083E70E4AD368E0
:1010AC0023EA0E03D36086E70B4A536823EA0E0348
:1010BC00536089E7084A136823EA0E0313608CE730
:1010CC0002B070BD00002210000031100010024070
:1010DC000000014000080140000401400AB1016118
:1010EC00704709040161704790F82130DBB2022B84
:1010FC0006D004238363002380F82030012070473E
:10110C000268136823F00E0313600268136823F05F
:10111C0001031360036CC16B012202FA03F34B60F1
:10112C0080F82120002380F82030184670470000FA
:10113C0008B590F82130DBB2022B03D00423836373
:10114C00012008BD0268136823F00E0313600268C7
:10115C00136823F0010313600368194A934214D0F7
:10116C00143293421FD0143293421ED01432934245
:10117C001ED0143293421ED01432934202D04FF040
:10118C00807203E04FF4801200E001220D4B5A6094
:10119C00012380F82130002380F82030436B6BB1A1
:1011AC0098470020CDE71022F0E74FF48072EDE76E
:1011BC004FF48052EAE74FF48032E7E70020C0E7B3
:1011CC000800024000000240074AD36823F4E063A1
:1011DC001B041B0C000200F4E060034343F0BF63EC
:1011EC0043F40033D360704700ED00E000B5194BB9
:1011FC00DB68C3F30223C3F1070CBCF1040F28BF57
:10120C004FF0040C03F1040EBEF1060F18D9033B8A
:10121C004FF0FF3E0EFA0CFC21EA0C0199400EFA3D
:10122C0003F322EA0303194300280BDB0901C9B2BB
:10123C0000F1604000F5614080F800135DF804FB9C
:10124C000023E5E700F00F000901C9B2024B195465
:10125C00F4E700BF00ED00E014ED00E0002807DB30
:10126C0000F01F02400901239340024A42F820304B
:10127C00704700BF00E100E00138B0F1807F0BD275
:10128C004FF0E0235861054AF02182F8231000202A
:10129C00986107221A6170470120704700ED00E049
:1012AC007047026802F10C0353E8003F23F490737B
:1012BC000C3242E800310029F3D1026802F1140328
:1012CC0053E8003F23F00103143242E800310029B7
:1012DC00F3D1036B012B05D0202380F8423000237F
:1012EC0003637047026802F10C0353E8003F23F0DC
:1012FC0010030C3242E800310029F3D1ECE790F8EE
:10130C004130DBB2212B01D0022070478368B3F54A
:10131C00805F17D0036A5A1C02621A7803685A60FD
:10132C00C38C9BB2013B9BB2C3844BB90268D3689C
:10133C0023F08003D3600268D36843F04003D3608A
:10134C00002070470369002BE4D1036A1B880268F4
:10135C00C3F308035360036A02330362E0E700003F
:10136C0010B504460268136923F44053C1680B435B
:10137C00136183680269134342691A430168CB689D
:10138C0023F4B05323F00C031343CB60026853696E
:10139C0023F4407381690B4353610268134B9A42E7
:1013AC0020D0FFF76BFD024602EB820202EB8202B9
:1013BC0063689B00B2FBF3F20D48A0FB02314909B4
:1013CC00642303FB11231B013233A0FB03235B09B2
:1013DC0003F0F00202EB011203F00F032168134437
:1013EC008B6010BDFFF75AFD0246DDE70038014067
:1013FC001F85EB5160B310B5044690F8413013B320
:10140C00242384F841302268D36823F40053D3603A
:10141C002046FFF7A5FF2268136923F4904313615C
:10142C002268536923F02A0353612268D36843F47A
:10143C000053D36000206064202384F8413084F88A
:10144C004230606310BD80F84030FEF777FFD7E77D
:10145C0001207047704708B50168CA6822F0400245
:10146C00CA60202280F84120FFF7F4FF002008BD5D
:10147C007047704708B5406A0023C385C384FFF7E3
:10148C00F8FF08BD704790F84230DBB2222B69D1CF
:10149C008368B3F5805F4FD0826AB3F5805F04D068
:1014AC00002B56D10369002B53D103685B68137072
:1014BC00836A01338362C38D9BB2013B9BB2C385AC
:1014CC00002B51D100B583B00268D36823F0200300
:1014DC00D3600268D36823F48073D36002685369C5
:1014EC0023F001035361202380F84230002343632F
:1014FC00036B012B33D100230363026802F10C034D
:10150C0053E8003F23F010030C3242E8003100296D
:10151C00F3D103681A6812F0100F06D00022019262
:10152C001A6801925B680193019B818DFFF7AAFFFA
:10153C00002003B05DF804FB0269002AACD1826A7A
:10154C0003685B68C3F308031380836A0233836206
:10155C00B1E703685B6803F07F031370A8E7FFF73C
:10156C0087FFE5E7022070470020704730B583B055
:10157C00044602681368D068516913F00F0505D151
:10158C0013F0200F02D010F0200F19D12DB111F053
:10159C00010119D110F4907F16D1216B01297DD056
:1015AC0013F0800F03D010F0800F40F0188113F06F
:1015BC00400F03D010F0400F40F0158103B030BD48
:1015CC002046FFF760FFF9E713F0010F06D010F487
:1015DC00807F03D0626C42F00102626413F0040F4E
:1015EC0004D019B1626C42F00202626413F0020F73
:1015FC0004D019B1626C42F00402626413F0080F5B
:10160C0007D010F0200F00D119B1626C42F0080223
:10161C006264626C002AD1D013F0200F02D010F05B
:10162C00200F29D123685B6903F04003626C12F030
:10163C00080F00D163B32046FFF733FE23685B69C4
:10164C0013F0400F20D0226802F1140353E8003F3E
:10165C0023F04003143242E800310029F3D1E36B4C
:10166C0073B1634A5A63E06BFFF762FD0028A5D0A3
:10167C00E06B436B9847A1E72046FFF704FFD1E7E7
:10168C002046FFF7F6FE99E72046FFF7F2FE95E7B6
:10169C002046FFF7EEFE002363648FE713F0100F74
:1016AC003FF47EAF10F0100F3FF47AAF002301939C
:1016BC001368019353680193019B536913F0400F16
:1016CC0051D0E26B13685B689BB2002B3FF476AF92
:1016DC00A18D99427FF672AFE3859369202B37D0A9
:1016EC00226802F10C0353E8003F23F480730C32A0
:1016FC0042E800310029F3D1226802F1140353E8C7
:10170C00003F23F00103143242E800310029F3D1E9
:10171C00226802F1140353E8003F23F04003143213
:10172C0042E800310029F3D1202384F84230002311
:10173C002363226802F10C0353E8003F23F01003EB
:10174C000C3242E800310029F3D1E06BFFF7CCFCFE
:10175C0002236363A18DE38D9BB2C91A89B2204623
:10176C00FFF790FE2AE7A18DE38D9BB2C91A89B2CF
:10177C00E38D9BB2002B3FF421AF00293FF41EAF49
:10178C00226802F10C0353E8003F23F490730C32EF
:10179C0042E800300028F3D1226802F1140353E828
:1017AC00003F23F00103143242E800300028F3D14B
:1017BC00202384F8423000232363226802F10C03B7
:1017CC0053E8003F23F010030C3242E800300028AD
:1017DC00F3D1022363632046FFF754FEEEE6204666
:1017EC00FFF78DFDEAE62046FFF735FEE6E600BF83
:1017FC0081140008FFF754FD0B480C490C4A0023D8
:10180C0002E0D458C4500433C4188C42F9D3094AAA
:10181C00094C002301E013600432A242FBD300F018
:10182C000FF8FEF72CFD7047000000200C00002084
:10183C00F01800080C000020BC000020FEE700009F
:10184C0070B500260C4D0D4C641BA410A64209D19A
:10185C0000F022F800260A4D0A4C641BA410A64284
:10186C0005D170BD55F8043B98470136EEE755F8A5
:10187C00043B98470136F2E7E8180008E81800081E
:10188C00E8180008EC18000803460244934200D103
:10189C00704703F8011BF9E7F8B500BFF8BC08BCAA
:1018AC009E467047F8B500BFF8BC08BC9E46704712
:1018BC0002030405060708090A0B0C0D0E0F101085
:1018CC0001020000000000000000000001020304FF
:0C18DC00060708090000000001020304D8
:0418E80031010008C2
:0418EC000D010008E2
:0C18F00001000000100000000024F400C3
:0400000508001801D6
:00000001FF
