:020000040800F2
:10000000002800208D1300087702000879020008FC
:100010007B0200087D0200087F020008000000004B
:100020000000000000000000000000008102000845
:100030008302000800000000850200088702000813
:10004000D5130008D5130008D5130008D5130008F0
:10005000D5130008D5130008D5130008D5130008E0
:10006000D5130008D5130008D5130008D5130008D0
:10007000D5130008D5130008D5130008D5130008C0
:10008000D5130008D5130008D5130008D5130008B0
:10009000D5130008D5130008D5130008D5130008A0
:1000A000D5130008D5130008D5130008D513000890
:1000B00091020008D513000800000000D5130008C5
:1000C000D51300080000000000000000D513000850
:1000D00000000000D5130008D51300080000000040
:1000E000D5130008D5130008D51300080000000040
:1000F0000000000000000000000000000000000000
:0C01000000000000000000005FF808F1A3
:10010C0010B5054C237833B9044B13B10448AFF345
:10011C0000800123237010BD70000020000000003F
:10012C006016000808B5034B1BB103490348AFF335
:10013C00008008BD0000000074000020601600085C
:10014C0030B587B0002402940394049405940E4BAC
:10015C009A6942F004029A619B6903F004030193CB
:10016C00019B0A4D2246F821284600F067FFF82330
:10017C0002930123039304940223059302A92846B6
:10018C0000F04CFE07B030BD0010024000080140EA
:10019C0072B6FEE700B587B0002302930393049375
:1001AC0005930093019314484FF08042026041F68E
:1001BC003F72426083600922C2600361836100F078
:1001CC00F9F990B94FF48053029302A90A4800F050
:1001DC0029FA60B90023009301936946064800F0A0
:1001EC00A1FA30B907B05DF804FBFFF7D1FFFFF7B8
:1001FC00CFFFFFF7CDFF00BF8C00002000B591B002
:10020C002822002106A801F015F90023019302937E
:10021C000393049305930223069301230A9310235B
:10022C000B9306A800F012FB68B90F230193002171
:10023C00029103910491059101A800F039FD20B9B8
:10024C0011B05DF804FBFFF7A3FFFFF7A1FF08B5A2
:10025C0000F0C2FAFFF7D2FFFFF772FFFFF79AFF29
:10026C0001F056F800F0E6FFFCE7FEE7FEE7FEE7DC
:10027C00FEE7FEE770477047704708B500F0BEFA1E
:10028C0008BD000008B5024800F0A4F808BD00BF86
:10029C008C00002082B00E4B9A6942F001029A61E8
:1002AC009A6902F001020092009ADA6942F08052D7
:1002BC00DA61DB6903F080530193019B054A5368B3
:1002CC0023F0E06343F00073536002B0704700BF4B
:1002DC0000100240000001400368B3F1804F00D0D1
:1002EC00704700B583B003F50433DA6942F00102BC
:1002FC00DA61DB6903F001030193019B00221146D3
:10030C001C2000F0BDFE1C2000F0F2FE03B05DF8D6
:10031C0004FB10B4036A046A24F0010404628469C7
:10032C0024F0F00C4CEA021223F00A030B43826116
:10033C00036210BC704710B4036A046A24F0100402
:10034C000462846924F4704C4CEA023223F0A0035A
:10035C0043EA01138261036210BC7047836823F087
:10036C0070030B4343F007038360704790F83D30F4
:10037C00DBB2012B23D1022380F83D300268D36815
:10038C0043F00103D36003680F4A93420CD0B3F1DE
:10039C00804F09D0A2F59432934205D01A6842F0EE
:1003AC0001021A60002070479A6802F00702062AC0
:1003BC0007D01A6842F001021A6000207047012031
:1003CC0070470020704700BF002C014070477047F9
:1003DC007047704710B5044603681A6912F0020F93
:1003EC0011D0DA6812F0020F0DD06FF002021A6110
:1003FC000123037703689B6913F0030F70D0FFF799
:10040C00E6FF0023237723681A6912F0040F12D039
:10041C00DA6812F0040F0ED06FF004021A61022396
:10042C00237723689B6913F4407F5FD02046FFF746
:10043C00CEFF0023237723681A6912F0080F12D01D
:10044C00DA6812F0080F0ED06FF008021A6104235C
:10045C0023772368DB6913F0030F4ED02046FFF798
:10046C00B6FF0023237723681A6912F0100F12D0FD
:10047C00DA6812F0100F0ED06FF010021A61082318
:10048C0023772368DB6913F4407F3DD02046FFF7C8
:10049C009EFF0023237723681A6912F0010F03D003
:1004AC00DA6812F0010F36D123681A6912F0800F46
:1004BC0003D0DA6812F0800F34D123681A6912F075
:1004CC00400F03D0DA6812F0400F32D123681A695A
:1004DC0012F0200F03D0DA6812F0200F30D110BDCB
:1004EC00FFF774FF2046FFF773FF8AE72046FFF7FC
:1004FC006DFF2046FFF76CFF9BE72046FFF766FF7A
:10050C002046FFF765FFACE72046FFF75FFF20466C
:10051C00FFF75EFFBDE76FF001021A61204600F0A5
:10052C0023FFC1E76FF080021A61204600F02DF91D
:10053C00C3E76FF040021A612046FFF74AFFC5E798
:10054C006FF020021A61204600F01EF9C7E7000088
:10055C000368174A904206D0B0F1804F03D0A2F541
:10056C009432904203D123F070034A681343104A2B
:10057C00904206D0B0F1804F03D0A2F59432904255
:10058C0003D123F44073CA68134323F080034A69F0
:10059C00134303608B68C3620B688362044B9842FD
:1005AC0002D00123436170470B690363F9E700BF75
:1005BC00002C014040B310B5044690F83D30F3B127
:1005CC00022384F83D30214651F8040BFFF7C0FF9D
:1005DC00012384F8463084F83E3084F83F3084F8A8
:1005EC00403084F8413084F8423084F8433084F849
:1005FC00443084F8453084F83D30002010BD80F83C
:10060C003C30FFF769FEDBE70120704710B48468CB
:10061C0024F47F4C42EA03220A4342EA0C02826031
:10062C0010BC704790F83C30012B78D010B50446C4
:10063C00012380F83C30022380F83D300268936837
:10064C0023F47F4323F0770393600B68602B4CD02B
:10065C0029D8402B54D00CD9502B22D1CA684968C8
:10066C000068FFF756FE50212068FFF777FE002048
:10067C0005E0202B0DD009D9302B0AD00120012305
:10068C0084F83D30002384F83C3010BD0BB1102BA6
:10069C0005D119462068FFF761FE0020EFE7012025
:1006AC00EDE70120EBE7B3F5805F34D0B3F5005FE5
:1006BC000CD1CB684A6889680068FFF7A7FF2268ED
:1006CC00936843F4804393600020D8E7702B24D1C7
:1006DC00CB684A6889680068FFF798FF22689368BE
:1006EC0043F0770393600020C9E7CA684968006843
:1006FC00FFF721FE60212068FFF730FE0020BEE7E7
:10070C00CA6849680068FFF704FE40212068FFF7BB
:10071C0025FE0020B3E70020B1E70120AFE702205F
:10072C007047000090F83C30012B28D010B4012306
:10073C0080F83C30022380F83D3003685A689C688E
:10074C0022F0700C0A6842EA0C025A6003680D4AE7
:10075C00934206D0B3F1804F03D0A2F5943293426A
:10076C0004D124F080044A6814439C60012380F86F
:10077C003D30002380F83C30184610BC70470220F6
:10078C00704700BF002C01407047704710B50446FD
:10079C000E4B18784FF47A73B3FBF0F30C4A1068D5
:1007AC00B0FBF3F000F0B2FC68B90F2C01D90120BA
:1007BC000AE0002221464FF0FF3000F061FC054BAF
:1007CC001C60002000E0012010BD00BF00000020D4
:1007DC00080000200400002008B5074A136843F005
:1007EC0010031360032000F039FC0F20FFF7CEFF3D
:1007FC00FFF750FD002008BD00200240034A11689D
:10080C00034B1B780B441360704700BFD4000020CF
:10081C0000000020014B1868704700BFD400002076
:10082C0082B0084B1B68084AA2FB03235B0A00FB3F
:10083C0003F3019300BF019B5A1E0192002BF9D1C7
:10084C0002B0704708000020D34D6210002800F061
:10085C00F18170B582B00446036813F0010F2CD0FF
:10086C00994B5B6803F00C03042B1DD0964B5B6813
:10087C0003F00C03082B12D06368B3F5803F41D012
:10088C00002B55D103F1804303F504331A6822F48D
:10089C0080321A601A6822F480221A6037E08A4B80
:1008AC005B6813F4803FE7D0874B1B6813F4003F61
:1008BC0003D06368002B00F0BF81236813F0020F94
:1008CC0075D0814B5B6813F00C0F5FD07E4B5B686F
:1008DC0003F00C03082B54D02369002B00F08A8002
:1008EC007A4B01221A60FFF795FF0546764B1B6881
:1008FC0013F0020F75D1FFF78DFF401B0228F5D9BD
:10090C0003209EE1704A136843F4803313606368DC
:10091C0043B3FFF77FFF05466B4B1B6813F4003F97
:10092C00CBD1FFF777FF401B6428F5D9032088E172
:10093C00B3F5A02F09D0644B1A6822F480321A60E8
:10094C001A6822F480221A60E1E703F18043A3F5D0
:10095C003C331A6842F480221A601A6842F48032DE
:10096C001A60D4E7FFF756FF0546574B1B6813F484
:10097C00003FA2D0FFF74EFF401B6428F5D903209F
:10098C005FE1514B5B6813F4803FA5D14E4B1B6864
:10099C0013F0020F03D02369012B40F04F814A4A18
:1009AC00136823F0F803616943EAC10313602368F9
:1009BC0013F0080F33D0A369002B5CD0434B0122FA
:1009CC00C3F88024FFF726FF05463F4B5B6A13F004
:1009DC00020F21D1FFF71EFF401B0228F5D903207F
:1009EC002FE1394A136823F0F803616943EAC10324
:1009FC001360DCE7354B00221A60FFF70BFF05464E
:100A0C00314B1B6813F0020FD1D0FFF703FF401BD3
:100A1C000228F5D9032014E10120FFF701FF236818
:100A2C0013F0040F00F09680274BDB6913F0805F06
:100A3C0034D1254BDA6942F08052DA61DB6903F07C
:100A4C0080530193019B0125214B1B6813F4807F7C
:100A5C0026D0E368012B3DD0002B53D103F180430A
:100A6C0003F504331A6A22F001021A621A6A22F0A0
:100A7C0004021A6233E0154B0022C3F88024FFF7FE
:100A8C00C9FE0546104B5B6A13F0020FC7D0FFF787
:100A9C00C1FE401B0228F5D90320D2E00025D3E784
:100AAC000B4A136843F480731360FFF7B3FE0646DA
:100ABC00074B1B6813F4807FCBD1FFF7ABFE801B79
:100ACC006428F5D90320BCE000100240000042422B
:100ADC00007000405F4A136A43F001031362E3683D
:100AEC0033B3FFF797FE06465A4B1B6A13F0020FFF
:100AFC002FD1FFF78FFE801B41F288339842F3D938
:100B0C0003209EE0052B09D0524B1A6A22F00102F9
:100B1C001A621A6A22F004021A62E0E74D4B1A6A52
:100B2C0042F004021A621A6A42F001021A62D6E713
:100B3C00FFF770FE0646474B1B6A13F0020F08D0F6
:100B4C00FFF768FE801B41F288339842F3D90320EB
:100B5C0077E0E5B9E369002B72D03E4A526802F0A7
:100B6C000C02082A56D0022B17D03B4B00221A66D7
:100B7C00FFF750FE0446374B1B6813F0007F47D03D
:100B8C00FFF748FE001B0228F5D9032059E0314A33
:100B9C00D36923F08053D361DCE72F4B00221A6614
:100BAC00FFF738FE05462B4B1B6813F0007F06D071
:100BBC00FFF730FE401B0228F5D9032041E0236AE1
:100BCC00B3F5803F1AD023494B6823F47413226A7F
:100BDC00606A024313434B601F4B01221A66FFF7F6
:100BEC0019FE04461B4B1B6813F0007F0ED1FFF758
:100BFC0011FE001B0228F5D9032022E0154A536888
:100C0C0023F40033A1680B435360DCE7002018E0A9
:100C1C00002016E0012B16D00E4B5B6803F48031DC
:100C2C00226A914211D103F47013626A93420ED17D
:100C3C00002006E001207047012002E0012000E0C6
:100C4C00002002B070BD0120FBE70120F9E7012074
:100C5C00F7E700BF00100240000042420F4B5B68F8
:100C6C0003F00C02082A01D00D487047C3F38342ED
:100C7C000C49885C13F4803F0BD0084B5B68C3F3C2
:100C8C004043094AD35C064A02FB00F0B0FBF3F088
:100C9C007047064B03FB00F0704700BF001002408A
:100CAC0000127A00781600088816000800093D002A
:100CBC00002800F0A08070B50D460446524B1B680E
:100CCC0003F007038B420BD24F4A136823F0070340
:100CDC000B431360136803F007038B4240F08D80C5
:100CEC00236813F0020F17D013F0040F04D0474AF7
:100CFC00536843F4E0635360236813F0080F04D087
:100D0C00424A536843F460535360404A536823F09B
:100D1C00F003A1680B435360236813F0010F31D02B
:100D2C006368012B20D0022B25D0384A126812F0B0
:100D3C00020F64D035494A6822F0030213434B601A
:100D4C00FFF768FD0646314B5B6803F00C036268E5
:100D5C00B3EB820F16D0FFF75DFD801B41F2883399
:100D6C009842F0D9032045E0284A126812F4003F5B
:100D7C00E0D101203EE0254A126812F0007FD9D163
:100D8C00012037E0204B1B6803F00703AB420AD964
:100D9C001D4A136823F007032B431360136803F0F9
:100DAC000703AB422DD1236813F0040F06D0174A6A
:100DBC00536823F4E063E1680B435360236813F03A
:100DCC00080F07D0114A536823F46053216943EA92
:100DDC00C1035360FFF742FF0C4B5B68C3F3031373
:100DEC000B4AD35CD8400B4B18600B4B1868FFF7C1
:100DFC00CDFC002070BD012070470120FAE70120D6
:100E0C00F8E70120F6E700BF002002400010024086
:100E1C008C160008080000200400002070B582B079
:100E2C000024A4468BE07F4DAA4210D007D97E4DFA
:100E3C00AA420CD005F58035AA4208D015E0A5F5DC
:100E4C008015AA4203D005F57025AA4209D18A68FB
:100E5C00002A00F0BF80012A00F0B780436108240B
:100E6C0003E0A5F58015AA42F1D0BEF1FF0F00F208
:100E7C00B3800646BEF1FF0F00F2B0804FEA8C0241
:100E8C0033680F25954023EA050304FA02F2134355
:100E9C0033604B6813F0805F4FD0644B9A6942F01B
:100EAC0001029A619B6903F001030193019B4FEAD4
:100EBC009C02951C5E4B53F825600CF003039D00BF
:100ECC000F23AB4026EA03065A4B984200F08C8065
:100EDC0003F58063984200F0898003F580639842A3
:100EEC0000F080800323AB4033430232504D45F871
:100EFC0022304B6813F4801F7AD04F4A936843EA30
:100F0C000E0393604B6813F4001F77D04A4AD368E2
:100F1C0043EA0E03D3604B6813F4003F74D0464A87
:100F2C00536843EA0E0353604B6813F4803F71D04F
:100F3C00414A136843EA0E0313600CF1010C0A6872
:100F4C0032FA0CF36CD0012303FA0CF302EA030E11
:100F5C0033EA0202F1D14A68122A3FF664AF122A30
:100F6C0083D801A555F822F05B0E0008C10F0008CC
:100F7C00CB0F0008DD0F0008770E0008770E000875
:100F8C00770E0008770E0008770E0008770E000821
:100F9C00770E0008770E0008770E0008770E000811
:100FAC00770E0008770E0008770E0008C50F0008B2
:100FBC00D10F0008CC6858E7CC68043455E7CC68EE
:100FCC00083452E7CC680C344FE7036108244CE733
:100FDC0000244AE7042448E7061D4BE7ACF108025D
:100FEC0092004DE702237EE700237CE701237AE79A
:100FFC00114A936823EA0E03936083E70E4AD36881
:10100C0023EA0E03D36086E70B4A536823EA0E03E8
:10101C00536089E7084A136823EA0E0313608CE7D0
:10102C0002B070BD00002210000031100010024010
:10103C000000014000080140000401400AB10161B8
:10104C007047090401617047C36801EA030221EA91
:10105C00030141EA0241016170470000074AD3686D
:10106C0023F4E0631B041B0C000200F4E060034358
:10107C0043F0BF6343F40033D360704700ED00E0EE
:10108C0000B5194BDB68C3F30223C3F1070CBCF1A9
:10109C00040F28BF4FF0040C03F1040EBEF1060F31
:1010AC0018D9033B4FF0FF3E0EFA0CFC21EA0C0161
:1010BC0099400EFA03F322EA0303194300280BDBD1
:1010CC000901C9B200F1604000F5614080F80013DD
:1010DC005DF804FB0023E5E700F00F000901C9B23D
:1010EC00024B1954F4E700BF00ED00E014ED00E0F2
:1010FC00002807DB00F01F02400901239340024A3D
:10110C0042F82030704700BF00E100E00138B0F138
:10111C00807F0BD24FF0E0235861054AF02182F812
:10112C0023100020986107221A6170470120704734
:10113C0000ED00E070470000002308E003EB8302A1
:10114C0090000E4A0244013951600133DBB2092B85
:10115C0013D803EB83008100084841580029F4D0D0
:10116C0003EB830188000549014449680029E5D156
:10117C00024A024401211173E7E77047D8000020AE
:10118C000023092B19D810B59E4603EB830C0C4C8D
:10119C0054F82C402CB10133DBB2092BF4D90020CC
:1011AC0010BD074B03EB8C0443F82C006160A2606C
:1011BC000EF10100A6462061F2E70020704700BF47
:1011CC00D80000200A2830D8002320E05C1C184AE4
:1011DC0003EB830304EB840E02EB830C02EB8E0E09
:1011EC00BEE80F00ACE80F00DEF80030CCF80030A1
:1011FC00E3B2082BEAD90E4B0022C3F8B42083F8D3
:10120C00C020C3F8C420012010BD0133DBB2092B70
:10121C0009D803EB8302064901EB82021269824270
:10122C00F3D110B5E5E7002070470020704700BFF0
:10123C00D80000202DE9F843002407E02869FFF7C7
:10124C00C1FF484600F0EEF80134E4B2092C33D863
:10125C0004EB8403194A02EB83031B7B002BF3D0B2
:10126C00174604EB84054FEA850802EB850500233D
:10127C002B7352F808309847142000F0CBF88146B5
:10128C0057F808306868A968EA68C9F80030C9F8E6
:10129C000400C9F80810C9F80C202B69C9F81030E3
:1012AC00AB68002BCAD0D9F8082004EB8406034B9A
:1012BC0003EB86067260C4E7BDE8F883D800002013
:1012CC0008B508210148FFF7BFFE08BD0008014022
:1012DC0008B510210148FFF7B7FE08BD0008014012
:1012EC0008B520210148FFF7AFFE08BD00080140FA
:1012FC0008B540210148FFF7A7FE08BD00080140D2
:10130C0008B580210148FFF79FFE08BD0008014089
:10131C0008B50F48FFF72AF80A2200210D48FFF7FD
:10132C002FFF142264210C48FFF72AFF0022C8214A
:10133C000A48FFF725FF28224FF496710848FFF75B
:10134C001FFF32224FF4FA710648FFF719FF08BD50
:10135C008C000020CD120008DD120008ED120008F0
:10136C00FD1200080D13000808B50268034B1B683A
:10137C009A4200D008BDFFF7DFFEFBE78C0000208F
:10138C00FFF7D8FE0B480C490C4A002302E0D45856
:10139C00C4500433C4188C42F9D3094A094C0023B5
:1013AC0001E013600432A242FBD300F00FF8FEF709
:1013BC004EFF70470000002070000020A4160008AB
:1013CC0070000020B4010020FEE7000070B500267C
:1013DC000C4D0D4C641BA410A64209D100F03AF937
:1013EC0000260A4D0A4C641BA410A64205D170BD00
:1013FC0055F8043B98470136EEE755F8043B9847FF
:10140C000136F2E79C1600089C1600089C16000892
:10141C00A0160008024B0146186800F07BB800BF0C
:10142C000C000020024B0146186800F00BB800BFFE
:10143C000C00002003460244934200D1704703F88D
:10144C00011BF9E738B50546002940D051F8043C9A
:10145C000C1F002BB8BFE41800F0E0F81C4A13680E
:10146C0033B9636014602846BDE8384000F0DCB83E
:10147C00A34208D9206821188B4201BF19685B6808
:10148C0009182160EDE71A465B680BB1A342FAD943
:10149C0011685018A0420BD12068014450188342A7
:1014AC001160E0D118685B68014411605360DAE7A1
:1014BC0002D90C232B60D6E7206821188B4201BF80
:1014CC0019685B680918216063605460CBE738BD0C
:1014DC00A001002070B50E4E0C463168054611B9BE
:1014EC0000F08CF830602146284600F087F8431C49
:1014FC000AD0C41C24F00304A04207D0211A2846A9
:10150C0000F07CF8013001D14FF0FF34204670BD63
:10151C00A40100202DE9F041CD1C25F00305083570
:10152C000C2D38BF0C25002D074601DBA94205D92F
:10153C000C2300263B603046BDE8F0812E4E00F0B7
:10154C006DF833681C4634BB29463846FFF7C2FF9A
:10155C00431C04464DD134682646002E40D12368E6
:10156C003146384604EB030800F048F880453AD180
:10157C00216803356D1A25F0030508350C2D38BF8D
:10158C000C2538462946FFF7A5FF01302BD02368E0
:10159C002B4423600EE02268521B1ED40B2A16D952
:1015AC006119A342256018BF5960636808BF316098
:1015BC0062514B60384604F10B0600F035F826F00A
:1015CC000706231DF21AB6D09B1BA350B3E7626823
:1015DC00A3420CBF32605A60ECE723466468B2E762
:1015EC0034467668B9E70C2338463B6000F01CF8AB
:1015FC00A1E72560DEE700BFA001002038B500237D
:10160C00054D044608462B6000F016F8431C02D129
:10161C002B6803B1236038BDA8010020014800F0FD
:10162C0009B800BFAC010020014800F004B800BFAD
:10163C00AC01002070477047044A05491368002B21
:10164C0008BF0B461844106018467047B0010020C4
:10165C00B8010020F8B500BFF8BC08BC9E46704726
:0C166C00F8B500BFF8BC08BC9E467047F3
:1016780002030405060708090A0B0C0D0E0F1010CB
:101688000102000000000000000000000102030445
:041698000607080930
:04169C003101000810
:0416A0000D01000830
:1016A40001000000100000000024F40010000020DD
:1016B4000000000000000000000000000000000026
:1016C4000000000000000000000000000000000016
:1016D4000000000000000000000000000000000006
:1016E40000000000000000000000000000000000F6
:1016F40000000000000000000000000000000000E6
:1017040000000000000000000000000000000000D5
:040000050800138D4F
:00000001FF
